:020000040800F2
:10000000080C0020BD080008C1060008C30600084F
:1000100000000000000000000000000000000000E0
:10002000000000000000000000000000C5060008FD
:100030000000000000000000C7060008C906000814
:100040005B05000800000000BB060008BF060008B2
:100050007F0800088B080008D1080008D3080008B2
:1000600000000000D5080008D7080008D9080008DB
:10007000DB080008DD080008DF08000800000000B9
:10008000E1080008E3080008E5080008E7080008A0
:10009000E9080008EB080008ED080008EF08000870
:1000A000F1080008F3080008F5080008CB0600086E
:1000B000F7080008F908000810B5C200182313401B
:1000C000FF249C40E2438907090E9940030004D4B1
:1000D00087489B089B00C01806E0864B0007000F6E
:1000E000083880088000181803681A40114301601E
:1000F00010BD81B0804901E081B080490A680243A7
:100100000A60096808400090009801B0704700003C
:10011000F8B58EB00120FFF7ECFF80204005784D48
:10012000296801432960296808400090009803214C
:100130000020C043FFF7C0FF00F099F8182200210B
:10014000684600F0F9F80420FFF7D6FF2020FFF7FB
:10015000D3FF0120FFF7D0FF802080010090002412
:100160000194012704976946664800F0EFF82022C1
:10017000002106A800F0E0F818220021684600F0EF
:10018000DBF8A86903218843A861B803FFF7B1FF32
:100190000120FFF7B1FF680D0090022601960325AC
:1001A00002950394049405976946A020C00500F0C9
:1001B000CDF870020090019602950394049405977F
:1001C0006946A020C00500F0C1F800211B20FFF700
:1001D00073FFB0064C4908600694E1204002079086
:1001E000089409940A940C200B900C940D94474D9C
:1001F00006A9280000F0FCF8EFF31080012181F33C
:100200001088A968C900C908A96080F31088EFF3B5
:100210001080012181F31088A9683D4A0A40310607
:100220001143A96080F310882868310701432960D1
:100230006868384901406960A8682A218843A86035
:10024000286807432F60E8698002FCD5E86940020E
:10025000F9D531480480EFF31080012181F3108833
:10026000296820220A432A6080F31088FEE710B52F
:1002700002200721C943294A13680B400343136036
:1002800013685B075B0F022BFAD1254A1368C40180
:100290001C43146013685B05FCD5D368214C1C40DB
:1002A000214B2343D3601368C4051C431460D368F7
:1002B000C4061C43D46013689B01FCD593681B4C97
:1002C0001C409460936819400843906090683821FE
:1002D00001401029FAD19068154901409160154CF0
:1002E000200000F0FFF8200000F009F910BD000028
:1002F00000E400E01CED00E0401002403410024039
:100300003C1002400008005000E100E000380140CD
:10031000FFFFFFF1FFB7FFFF0408002000200240AD
:10032000001002408C80FF1F02080020FFF0FFFF3A
:10033000FF8FFFFF0090D00310B5040008001100EC
:100340000200200000F0E2F8200010BDF8B5040023
:100350000800002146E02E0A3500754375437543B9
:10036000666A2F017F1BBE43009F7D433543656254
:1003700031E001258D40154033D02A006A435300F7
:100380009E18F3434668012E01D0022E0BD1A668B9
:100390001E40876857433743A7606668AE43C76807
:1003A0006F4337436760E6681E400769574337432A
:1003B000E7604668022E0ED146690096FF2DCAD826
:1003C00016006E436E43256A3701BF1BBD43009F75
:1003D0007E432E43266225682B4045686A431A43B4
:1003E0002260491C02681300CB40C2D10020F2BD3C
:1003F000FEB5040001200125226810405DD10E00E9
:10040000206833490140B06808433169014370698D
:100410000843F1690143216060682E490140F0689A
:1004200008436060A0682C490140B0690843A0609F
:100430002348844201D1032003E02248844203D1AF
:100440000C2000F09CF809E01F48844202D01F48AD
:1004500084422BD1684600F086F80298002825D007
:100460007768002F22D0002531680C291ED21B4A44
:100470000906890D515800F005F97908F2698023C1
:100480001B029A420CD140004018390000F0FAF8E3
:1004900080B2134901400007400F0143E16005E0CD
:1004A0004018390000F0EEF880B2E060E06A0F21F9
:1004B0008843316889B20843E0622800FEBD00002D
:1004C000003801400044004000480040004C00401B
:1004D000F369FFEFFFCFFFFFFFFCFFFF8807000876
:1004E000F0FF000010B5074CFA21890000F0CAF8AF
:1004F000401E60600020A0600520206010BD024901
:100500000860704710E000E0000000201206130AA7
:100510001A43130C1A4300BF094205D0830705D0C4
:100520000270401C491EF9D17047000013001039B9
:1005300006D330B41400150010393CC0FCD230BCD6
:10054000490700D30CC000D504C0890002D3028043
:10055000801C002900D502707047FEE74148006802
:100560004004400E704710B5040000F043F82060CE
:1005700000F065F8606000F068F8A06010BDF8B5A4
:1005800001000020394A8023DB00374C5D01022640
:1005900003290CD1616D8F07BF0FC0218902394338
:1005A000334FC91B12D0491E13D0491E0CE00C2931
:1005B0001FD1676D3940C0273F030F432D497F1A74
:1005C00004D03F1F05D03F1F08D00CE000F012F808
:1005D000F2BD21680B400CD01000F2BDE16D0E4061
:1005E00007D02800F2BD00F005F800F028F800F070
:1005F0002CF8F2BD70B51C4EB06807241B4D382195
:100600000140082902D0102902D00FE0280070BD57
:10061000F068FFF7A3FFF168F668684309090C402A
:10062000611C00F02FF8710F491C05E032682800AA
:100630000121D20A1440A14000F024F870BD0E49F7
:1006400009680E4A0905090F04E00B4909680C4ABC
:100650004904490F8900515CC906C90EC84070475A
:10066000000000000C100240001002400024F400C2
:100670000100030004000C00081002400C070008F1
:1006800034080008094214D088420FD30122030C19
:1006900001D100041204002300185B418B4200D3F7
:1006A0005B1A5241F8D31900100070470100002076
:1006B000704708B500F002F808BDFEE77047FEE796
:1006C000FEE7FEE77047704770470D48C26920217A
:1006D0000A4000D1704710B5026811400ED0426A3E
:1006E00008480188D2B2084B4C001A53491C8AB200
:1006F0008023DB009A4200DB0021018010BD000056
:100700000038014004080020040000200000000020
:1007100000000000000000000000000000000000D9
:1007200000000000000000000000000001000000C8
:1007300002000000030000000400000006000000AA
:1007400007000000080000000900000070B4012349
:10075000002413E00168001D194202D04D466918BB
:10076000491E0C60091D121F042AFAD20D009607BB
:1007700001D50C80AD1C1A4000D02C700268001D01
:10078000002AE7D170BC70470100000002000000A1
:100790000400000006000000080000000A0000003D
:1007A0000C000000100000002000000040000000CD
:1007B000800000000001000030B401220EE0036858
:1007C000C31844680830144202D04D462C19641EE8
:1007D0001D6825601B1D241D091FF9D10168001D1E
:1007E0000029ECD130BC704710B507497944183165
:1007F000064C7C44163404E0081D0A6889188847B2
:100800000100A142F8D110BD08000000280000003E
:100810003DFFFFFF0408000004000020000000006E
:1008200099FFFFFF04000000A4000000000000206A
:1008300000000000000000000000000000000000B8
:1008400000000000010000000200000003000000A2
:100850000400000000F00DF8002801D0FFF7C4FFED
:1008600000BF00BF002000BF00BFFFF751FC00F039
:1008700002F80120704780B500F002F801BDFEE7E4
:100880000746384600F002F8FBE7FEE780B500BFF8
:1008900000BF024A11001820ABBEFBE72600020091
:1008A0000548014603B4684680F3098800BF00BFCD
:1008B00000BF00BFFFF7CEFFA5EDF5FE0148804762
:1008C00001480047FD080008A10800080024F400C2
:1008D000FEE7FEE7FEE7FEE7FEE7FEE7FEE7FEE7F0
:1008E000FEE7FEE7FEE7FEE7FEE7FEE7FEE7FEE7E0
:0E08F000FEE7FEE7FEE7FEE7FEE700007047CA
:04000005080008A146
:00000001FF
