:020000040800F2
:100000005026002055230008692100086D210008B2
:1000100000000000000000000000000000000000E0
:100020000000000000000000000000007121000836
:100030000000000000000000732100087521000886
:100040001F100008000000002F100008EB1300082C
:10005000231800087D210008872000088B20000855
:10006000000000008721000891210008A12100085C
:100070001723000823230008712300080000000054
:1000800073230008752300087723000879230008EC
:100090007B2300087D2300087F23000881230008BC
:1000A00083230008B1210008BB2100088523000834
:1000B0008723000889230008F8B50400002C01D12B
:1000C00001207EE0606A002807D160688221490033
:1000D000884205D00020E06102E0002020616061DC
:1000E0000025A5625D20205C002805D128005C2148
:1000F0006054200000F078FC022001005D22A15431
:10010000216809684022914322681160E1682D4A04
:10011000914201D3290001E080214901F02212011E
:10012000E368934205D0E368E026F600B34200D0CE
:10013000A5620123666882277F003740BC46A76816
:10014000842636023E4067463E43276938403043A6
:1001500066691E400643A0698027BF0038403043CF
:10016000277F38263E4006432020205C80273840E9
:100170003043A66A8027BF013E40064320680660E0
:10018000A069060C042006402420205C102738407B
:1001900030433426A65D08273E400643E06802400F
:1001A000324380204001084010432268506020689C
:1001B000C069054A02402068C26125665D2023545B
:1001C0000020F2BD01070000FFF7FFFFFEB582B07F
:1001D000040000252F005C20205C012801D10220B2
:1001E0000BE1012630005C2160545D20205C6946F3
:1001F0000870606801906846007801280ED0019868
:1002000082214900884206D1A068002803D16846AF
:100210000078042802D002200700EAE002980028B3
:1002200006D00398002803D06846008A002801D130
:100230003700DEE05D20205C042802D005205D212F
:10024000605425660298A0636846008AA0876846C5
:10025000008AE087039820646846008A442160523F
:100260006846008A46216052E5642565206840683A
:100270006749014020684160E0686649884206D3CA
:10028000206840685F4901402068416050E0206874
:100290004068802149010143206841608020C000FE
:1002A000616D896981421AD13C21615CC9070AD418
:1002B00021684968584A0A4021684A60E18F89B23A
:1002C0004908E1870BE0216849688022D2010A438E
:1002D00021684A60E18F89B24908491CE187A16D14
:1002E0008969814224D120684068464901402068DC
:1002F00041604620205AC0070CD42068406840491D
:100300000140206841604620205A80B240084621C2
:1003100060520DE020684068802189010143206817
:1003200041604620205A80B24008401C462160525D
:100330005D20205C042806D13348A16D0863334852
:10034000A16DC86205E03548A16D08633448A16D10
:10035000C8623448A16D4863A06D85634620235A66
:10036000226C206801000C31A06D00F093FC002885
:1003700008D0206E102101432166300007005D2067
:10038000265436E020684068304321684860606D3C
:100390000563606DC562606D4563606D8563E38F65
:1003A000206802000C32A16B606D00F073FC002825
:1003B00008D0206E102101432166300007005D2027
:1003C000265416E04020216809680140002904D124
:1003D0002168096808432168086020684068202176
:1003E0000143206841602068406802210143206881
:1003F00041605C2025543800C0B205B0F0BD00005B
:10040000FFDFFFFFFFEFFFFF9B060008B1050008BD
:10041000FF9FFFFF01070000FFBFFFFFA9060008C5
:1004200031060008B706000838B504000025606DE5
:1004300000280AD0606D00F089FC002805D0206EED
:1004400010210143216601200500A06D00280AD07B
:10045000A06D00F07BFC002805D0206E1021014328
:100460002166012005002068406803218843216837
:10047000486001205D2160542800C0B232BDF8B54B
:1004800004002068476820688568412028400128CA
:1004900005D1780603D52000E16C884784E0A807E1
:1004A00005D5380603D52000216D88477CE0B020B3
:1004B00040002840002877D02020074274D04026F2
:1004C00035421BD05D21615C03290DD0216E0422D1
:1004D0000A432266002100912168C96800912168C1
:1004E00089680091009909E0002000902068C068A8
:1004F0000090206880680090009855E0284000280F
:100500000FD0206E01210143216600200090206859
:100510008068009020680068402188432168086056
:100520000098E80509D5206E0821014321660020C6
:1005300000902068806800900098206E002832D0DB
:1005400020684068E02188432168486001205D21DF
:100550006054B807800F002822D02068406803212B
:10056000884321684860A06D00280AD00F48A16D1B
:100570008863A06D00F030FC002802D0206E30436C
:100580002066606D00280ED00848616D8863606D3C
:1005900000F022FC002806D0206E0643266602E00A
:1005A000200000F03BFDFFE7F1BD0000DF06000882
:1005B000F8B50600B46A00F033FD07002025306866
:1005C0000068284000282FD12068406820218843F7
:1005D00021684860A06800280BD16068822149002A
:1005E000884206D12068406803218843216848601A
:1005F00005E02068406801218843216848603A008E
:100600006421200000F05EF9002800D0256600205B
:100610004621605201205D216054206E002803D0E5
:10062000200000F0FBFC02E0200000F0FFFCF1BD28
:10063000F8B50600B56A00F0F3FC07002024306826
:1006400000682040002824D1286840682021884381
:10065000296848603A006421280000F07AF90028EF
:1006600002D0286E04432C66286840680321884322
:100670002968486000200100E9874621685201206E
:100680005D216854286E002803D0280000F0C6FCC5
:1006900002E0280000F0CDFCF1BD38B50400A56AE9
:1006A000280000F096FE31BD38B50400A56A280088
:1006B00000F090FE31BD38B50400A56A2868406896
:1006C0000321884329684860286E10210143296668
:1006D00001205D216854280000F0A0FC31BD38B530
:1006E0000400A56A002046216852E887280000F02F
:1006F00095FC31BDFFB581B004000A9F049D00F058
:100700008FFC281AC51900F08BFC06006B480068A6
:1007100020214843000D68430090206880680299BA
:1007200001400298814201D1012000E00020694689
:10073000097B884247D004980021C9438842ECD005
:1007400000F06EFC801BA84201D2002D32D120683F
:100750004068E02188432168486060688221490040
:1007600088420FD1A06880210902884204D0A06885
:100770008021C900884205D1206800684021884353
:100780002168086080208001A16A81420AD1216825
:1007900009684B4A0A4021680A60216809680843D1
:1007A0002168086001205D21605400205C216054B4
:1007B000032009E00098002801D1002005000098DE
:1007C000401E0090A9E7002005B0F0BDFFB583B042
:1007D00004000025280069460870069E00F020FCF1
:1007E000301A0C99461800F01BFC070020680C30EA
:1007F00002903248006823214843000D7043019065
:1008000020688068049901400598814253D004987B
:10081000C021C900884208D10598002805D1029856
:100820000078694608706846007806980021C94338
:100830008842E5D000F0F4FBC01BB04201D2002E8C
:1008400031D120684068E0218843216848606068B1
:100850008221490088420FD1A06880210902884284
:1008600004D0A0688021C900884205D120680068B2
:10087000402188432168086080208001A16A81426C
:100880000AD1216809680E4A0A4021680A60216875
:10089000096808432168086001205D2160545C20DC
:1008A0002554032008E00198002800D12E0001986B
:1008B000401E0190A4E7002007B0F0BD0400002016
:1008C000FFDFFFFFF8B504000F00160082256D0062
:1008D0006068A8420FD1A06880210902884204D034
:1008E000A0688021C900884205D1206800684021A5
:1008F00088432168086000963B0000228021200088
:10090000FFF7F8FE002805D0206E20210143216664
:1009100003201DE06068A84219D1A0688021090267
:10092000884204D0A0688021C90088420FD1009677
:100930003B000022C021C9002000FFF747FF00282C
:1009400005D0206E202101432166032000E0002015
:10095000F2BD7CB504000E001500009533000022A6
:10096000C02149012000FFF731FF002805D0206E8B
:1009700020210143216603201FE00095330000225F
:1009800080212000FFF7B6FE002805D0206E202130
:1009900001432166032010E0009533000022C021AE
:1009A000C9002000FFF712FF002805D0206E20218B
:1009B00001432166032000E0002076BD81B00120C4
:1009C0007B490A6802430A60096808400090009861
:1009D0008020400577490A6802430A600968084098
:1009E0000090009801B07047F1B586B01422002144
:1009F000684600F0F0FC069800686F49884260D1B4
:100A0000802040016A490A6802430A600968084078
:100A100005900598012069490A6802430A6009683F
:100A2000084005900598462000900220019000247F
:100A300002940320039004946946A020C00500F0AE
:100A4000D5FC5F4E5F48306010207060B460F46089
:100A50008020306180277F0077618025ED00B561BF
:100A6000F461C02080013062300000F0BBF8002843
:100A700001D000F0ABFC069886650698B062524E35
:100A800052483060112070601020B060F460802007
:100A900030617761B561F4613462300000F0A2F832
:100AA000002801D000F092FC069846650698B062D6
:100AB00000220021192000F03AFE192000F041FE2A
:100AC00074E006980068424988426FD18020C001D6
:100AD00038490A6802430A60096808400590059889
:100AE00001243648016821430160006820400590D8
:100AF0000598092000900226019600200290032507
:100B0000039500200490A027FF056946380000F0F7
:100B10006DFC102000900196002002900395049433
:100B20006946380000F062FC2A4E2B4830601220E3
:100B300070600020B0600020F06080273761802462
:100B4000640074618025ED00B5610020F0618020B3
:100B500080013062300000F045F8002801D000F03C
:100B600035FC069886650698B0621C4E1C483060BD
:100B7000132070601020B0600020F0603761746155
:100B8000B561F0613062300000F02CF8002801D02F
:100B900000F01CFC069846650698B0620022002111
:100BA0001A2000F0C4FD1A2000F0CBFD07B0F0BD04
:100BB000401002403C10024000300140341002401E
:100BC000D4200020300002403021002044000240A8
:100BD000003800408C21002008000240E82100205D
:100BE0001C00024010B50400002C01D1012050E08F
:100BF000206878494018142100F0BCFD8000206472
:100C0000022025216054206800689749014020682F
:100C1000016020680068A1680143E0680843216919
:100C2000014360690843A1690143E0690843216AFF
:100C3000014320680160200000F0BCF9A068802119
:100C4000C901884201D10020606020798006800EB1
:100C5000616C0860E06CA16C4860606800280CD092
:100C60006068052809D2200000F0BEF90020216D3F
:100C70000860A06D616D486003E00020206560653C
:100C8000A0650020E06301212522A15424216054A5
:100C9000002010BDF7B504001F000020060024212D
:100CA000615C012901D102204FE0012529002422A5
:100CB000A1542521615C012940D102212522A154A2
:100CC000E0632068006801218843216808603B00D8
:100CD000029A0199200000F045F9206B002806D007
:100CE000206800680E210143206801600BE0206845
:100CF00000680421884321680860206800680A2190
:100D0000014320680160606C0068C00306D5606C18
:100D10000068802149000143606C0160206D00285B
:100D200006D0206D0068802149000143206D0160DC
:100D30002068006805432068056004E08021E163C5
:100D4000242160542E003000C0B2FEBD70B50100F9
:100D5000002901D101203BE02520085C022806D0B3
:100D60000420C863002024228854012030E0086851
:100D700000680E2290430A6810603D484A6C126871
:100D800002404B6C1A600A68126801239A430B6890
:100D90001A600123354A146840254D5D1C262E40FB
:100DA0001D00B54025431560CA6C8C6C62600A6DED
:100DB000002A07D00A6D126810400A6D1060886D15
:100DC0004A6D506025200B540020242288540020B6
:100DD00070BD0000F8FFFDBFF8B50400002005005D
:100DE0002521615C022904D00420E0630120050074
:100DF00036E0216809680E2291432268116021685B
:100E0000096801229143226811601949626C1268D5
:100E10000A40636C1A600126144A13689C464023FA
:100E2000E75C1C233B4037009F4063461F4317602D
:100E3000E26CA36C5A60226D002A07D0226D126802
:100E40001140226D1160A16D626D516025216654C3
:100E500024216054A06B002802D02000A16B884799
:100E60002800C0B2F2BD00000F80FFFF0400024066
:100E7000FFFEFFFFF8B504004D48056820680668CE
:100E80001C200421226C02400B0093402B40002BBD
:100E900019D00E4217D022681268920605D4226833
:100EA000126804239A4323681A604E4A1368276C19
:100EB0003840814019431160206B002851D0200038
:100EC000216B88474DE00221226C02400B009340C9
:100ED0002B40002B1FD00E421DD0226812689206B4
:100EE00008D4226812680A239A4323681A600122F0
:100EF0002523E2543B4A1368276C3840814019434C
:100F00001160002024216054E06A002829D02000CC
:100F1000E16A884725E00821226C02400B009340DB
:100F20002B40002B1DD0314000291AD021680968C0
:100F30000E2291432268116001212A4A1368276C0E
:100F400038400F0087401F431760E163252021547C
:100F5000002024216054606B002802D02000616BC7
:100F60008847F1BDF0B5C46C856C6C60046D002CD5
:100F700002D0846D456D6C601A4C26680127BC4612
:100F80004025475D1C253D406746AF4037432760FD
:100F9000046863608468102C04D10468A26004684B
:100FA000E16003E00468A1600468E260F0BD000055
:100FB0000000024010B50400206C80080421484362
:100FC0001249401860642078C0B20838142100F03B
:100FD000D1FB0F49A16401210200D206D20E91403B
:100FE000E16410BD0400024001798906890E0422E3
:100FF0004A43084BD2180265074A426501220B009A
:101000005B1E9B079B0F9A40826570470008024059
:1010100080080240FC080240400902407047FEE799
:1010200001480068704700BF482200207047FEE773
:10103000704710B5040020688C49884204D1802193
:10104000C9008B48FFF7F4FF10BD10B504008023E2
:10105000DB00874A87498848FFF7B8F80020C0437B
:10106000CA49086010BD38B5040084480168496861
:10107000002907D08021C900006840680D1A7E4809
:10108000FFF7D2F931BDF8B500F0CCFB00F04CF819
:1010900000F0F6F800F0C6F800F086F800F0A1F8CD
:1010A000002738008026F600010089B2B14209DA33
:1010B000B749091AB74A03009BB202245C43115393
:1010C000401CEFE73800010089B2B14209DAB049AB
:1010D000091A684A03009BB202245C431153401C66
:1010E000F1E7AD4DFFF79CFF28600020C043AB49FE
:1010F000086080246401AA48046030000300A94A03
:10110000A449A948FFF762F8A84800684068002889
:10111000FAD1A7480460FFF783FF2968401A2860C6
:10112000380069460870DCE730B591B03422002100
:1011300004A800F050F910220021684600F04BF995
:101140008020800000F086FB012004908020400277
:10115000059002240B9403200C9000250D95082087
:101160000E90802080020F9080208005109004A8AF
:1011700000F09CFB002801D000F028F90720009027
:101180000194029503950221684600F0EDFD0028C8
:1011900001D000F01BF98022520580214904002073
:1011A00000F0A6FE11B030BD80B533482F49016074
:1011B000002141608160F0221201C2600161416141
:1011C0008022920082610162416281620722C262D2
:1011D00001634163FEF770FF002801D000F0F6F8CC
:1011E00001BD80B5704873490160822149004160AA
:1011F00000218160F0221201C26001614161802200
:1012000092008261C1610162416281620722C26211
:10121000016308214163FEF74FFF002801D000F071
:10122000D5F801BD80B5012063490A6802430A6010
:10123000096808400090009800220021092000F071
:1012400076FA092000F07DFA002200210A2000F041
:101250006EFA0A2000F075FA002200210B2000F03F
:1012600066FA0B2000F06DFA01BD0000003001406D
:101270000C1800200C1000200C200020D42000208E
:10128000F8B586B014220021684600F0A4F80421C5
:101290004A4802680A4302600268114005910599B4
:1012A000202102680A4302600268114005910599F5
:1012B00001240168214301600168214005910599DD
:1012C000022701683943016000683840059005989D
:1012D0000122802149013A4800F07DF90022402195
:1012E000384800F078F90022F0214900344800F035
:1012F00072F98020800100900025019502946946D2
:10130000304800F073F80094C420800301900295E7
:1013100069462B4800F06AF88F2040010090019444
:101320000295032603966946254800F05FF8802061
:101330004000009001970295039504956946A0200E
:10134000C00500F053F840200090019402950396E8
:1013500069461C4800F04AF81B4801688022520286
:101360000A4302600168802292020A430260016817
:101370008022D2020A43026000220021052000F0F0
:10138000D6F9052000F0DDF907B0F0BD28080050BF
:10139000FF0300000C000020442200201808005029
:1013A000280400500C08002070200020E8210020B4
:1013B0001804005000380040381002403410024039
:1013C00000040050000800500000014000B572B653
:1013D000FEE77047704710B50400080011000200D6
:1013E000200000F029FE200010BDFEE7F1B582B01C
:1013F00000230868D840002800D1EBE001240868E9
:1014000025009D40054001950198002800D1DFE0AE
:10141000032548682840012803D04868284002284E
:101420001ED1029886681F00022047432800B8405A
:101430008643CF68BC46180002277843674687403A
:101440003743029887600298466820009840864398
:1014500048680009204098403043020002984260EA
:1014600048682840032812D00298C6681F0002204E
:1014700047432800B84086438F68BC4618000227BF
:1014800078436746874037433A000298C26048680D
:101490002840022821D10298DE0804277E438019C3
:1014A000076A072000970F26B4461F00074004264E
:1014B00077436646BE40009FB743BC460E691F0097
:1014C000384004277843864067463E4332000298FE
:1014D000DE0804277E4380190262029806681F0016
:1014E000022047432800B84086434F682F40BC463F
:1014F0001800022778436746874037433A0002982E
:1015000002604868C026B6020640002E60D0484EF1
:10151000980804277843305800900F27BC461F00D6
:101520002800384008277843674687400098B8432A
:1015300000900298A027FF05B84201D1002410E0D6
:1015400002983C4A90420CD002983B4A904201D10A
:10155000022406E00298394A904201D12C0000E0B2
:10156000052400981A00154008225543AC40044356
:101570009808042250433450314A1068019DA84312
:101580004D68ED0202D504000198204310602D4CF7
:101590002268019DAA434D68AD0202D51000019A50
:1015A00002432260284C2068019DA8434D68AD038A
:1015B00002D50200019810432060244C2268019D4E
:1015C000AA434D68ED0302D51000019A0243226040
:1015D0005B1C0EE7F7BD00B51300DBB2002B03D098
:1015E0000B009BB2836102E00B009BB2836200BDE3
:1015F00010B5040016480168220092B2114000297B
:1016000006D0210089B20160200080B2FFF72BFDD7
:1016100010480168220092B21140002906D0210032
:1016200089B20160200080B2FFF70FFD10BD0000FD
:10163000601802400004005000080050000C0050E8
:10164000001802400418024084180240801802402A
:101650000C1802401018024000B5010049B20029E0
:1016600005D40121C206D20E91403C4A116000BD52
:10167000F0B5020052B2002A1CD40322384B0400F9
:1016800064B2A40804256C431C59FF2516000640CB
:1016900008277E43B540AC438D01EDB202400826D9
:1016A000724395402543020052B2920804246243DB
:1016B0009D5022E00F242B4A032305006DB22540E4
:1016C000083DAD0804267543060076B23440083C58
:1016D000A408042674431659FF27BC461C00044086
:1016E00008277C436746A740BE438C01E4B2034011
:1016F00008277B439C4034435451F0BD10B504008F
:10170000601E80214904884201D301200EE0601E42
:101710001549086003210020C043FFF7A9FF0020FE
:1017200012490860072012490860002010BD70B5FA
:1017300005000C0016002100280040B2FFF798FFBA
:1017400070BD10B50400200040B2FFF785FF10BD4A
:1017500010B504002000FFF7D1FF10BD00E100E04C
:1017600000E400E01CED00E014E000E018E000E020
:1017700010E000E00022030A8B420BD203098B42E7
:1017800019D243088B422ED2411A00D2014652414F
:1017900010467047FF2209023FD012068B4205D344
:1017A000121209028B4201D31212090203098B4261
:1017B00019D300E0090AC3098B4201D3CB01C01A37
:1017C000524183098B4201D38B01C01A5241430914
:1017D0008B4201D34B01C01A524103098B4201D302
:1017E0000B01C01A5241C3088B4201D3CB00C01A6F
:1017F000524183088B4201D38B00C01A52414308E7
:101800008B4201D34B00C01A5241884200D3401A88
:101810005241CFD201461046704708B500F034FC63
:1018200008BDFEE710B50024094801688022520077
:101830000A430260032000F029FC002802D00120A6
:10184000040001E0FFF7BAF82000C0B210BD0000AC
:101850000020024030B504000F4801680F4A0A40DA
:101860002243026080208000844212D10C4800682C
:10187000062148430B49FFF77DFF401C05000A483D
:101880000068400505D5002D01D06D1EF7E7032047
:1018900000E0002030BD000000700040FFF9FFFFB5
:1018A0000400002040420F0014700040F8B584B0DE
:1018B0000400002C01D1012044E2012620683040C0
:1018C00000285CD0B3480068382101400291B2483A
:1018D00000688007800F01900298102802D10198BB
:1018E000032802D00298082808D1AC480068800379
:1018F00045D56068002842D1012023E280204002C3
:101900006168814204D1A5490A681043086017E064
:101910006168A022D202914209D1A0490A688023BD
:10192000DB0213430B600A681043086008E09B4821
:101930000168B04A0A4002600168AF4A0A4002608A
:10194000606800280DD0FFF76BFB05009348006826
:10195000800314D4FFF764FB401B6528F6D30320F3
:10196000F0E1FFF75DFB05008C480068800306D5B9
:10197000FFF756FB401B6528F6D30320E2E12078F1
:10198000800776D58348006838210140029182485B
:1019900000688007800F01900298102802D10198FA
:1019A000022802D0029800282CD17C490868400502
:1019B00004D5E068002801D10120C3E1B9480368DB
:1019C000B94A1A4063691B02134303600298002856
:1019D00010D10868BE4A0240206910430860BD4823
:1019E0000968C90A4A07520F31009140FFF7C2FE49
:1019F000B9490860B948006800F048FB002838D0B1
:101A000001209FE1E068002821D0644F3868B04988
:101A1000014020690843386038688021490001434B
:101A20003960FFF7FDFA05003868400506D4FFF776
:101A3000F7FA401B0328F7D3032083E19948016894
:101A4000994A0A40616909021143016011E0534F4C
:101A50003868BD4901403960FFF7E2FA050038688F
:101A6000400506D5FFF7DCFA401B0328F7D3032017
:101A700068E12078000734D54648006838210140E5
:101A8000182908D1B148006880072AD5A069002824
:101A900027D1012056E1A069002810D0AB4F38684B
:101AA00030433860FFF7BCFA05003868800718D467
:101AB000FFF7B6FA401B0328F7D3032042E1A34FF8
:101AC0003868012188433860FFF7AAFA05003868B2
:101AD000800706D5FFF7A4FA401B0328F7D303209D
:101AE00030E1042720683840002800D18FE0002032
:101AF00069460870274800683821014020290AD12A
:101B000093480068800700D481E0A068002800D0D6
:101B10007DE0012016E1802040058E4909680140E2
:101B200000290AD18B490A6802430A600968084003
:101B30000390039830006946087087480068C00524
:101B400014D485480068802149000143824801601F
:101B5000FFF766FA050080480068C00506D4FFF765
:101B60005FFA401B0328F6D30320EBE0A0680128AE
:101B700004D1774801680E4306601AE0A068052882
:101B80000ED1734801680F43076001680E43066079
:101B90000FE000BF081002400C100240001002408D
:101BA0006B4801680122914301600168042291435E
:101BB0000160A06800280ED0FFF732FA05006448E3
:101BC000006880071AD4FFF72BFA401B634988424C
:101BD000F5D30320B6E0FFF723FA05005C48006860
:101BE00080070BD5FFF71CFA401B5C498842F5D3F0
:101BF0000320A7E0FFFFFEFFFFFFFBFF6846007822
:101C0000012804D153480168554A0A400260E0693E
:101C1000002800D195E05348006838210140102980
:101C200064D0E069022841D1AE4F3868AE49014026
:101C30003960FFF7F5F900908026B6043868304027
:101C4000002807D0FFF7ECF90099401A0328F3D3D6
:101C5000032077E0BA480168A44A0A40216A114388
:101C6000626A0A43A16A09021143E26A0A43216BCC
:101C7000114301603968802252040A433A600168C6
:101C8000802252050A430260FFF7CAF9050038684E
:101C90003040002855D1FFF7C3F9401B0328F6D385
:101CA00003204FE004100240FF80FFFF8D4E30689C
:101CB0008D4901403160FFF7B3F9050030688001BC
:101CC0000ED5FFF7ADF9401B0328F7D3032039E009
:101CD000FFC7FFFF0024F4000400002000000020E4
:101CE00097480168974A0A4002602AE0E0690128A3
:101CF00001D1012026E092480068019001988007F8
:101D0000800F216A88421AD1019870210140606ACF
:101D1000814214D10198FE21C9010140A06A00024C
:101D200081420CD10198F82189030140E06A814287
:101D300005D10198400F4007216B884201D0012056
:101D400000E0002005B0F0BDFFFEFFFF6010024084
:101D50005C1002403C1002400070004089130000FB
:101D6000FFFFFFEF08100240F3B581B00400002C24
:101D700001D10120B5E00725A04E30682840029926
:101D8000884216D2306807218843029901433160A6
:101D9000FFF746F90090306828400299884208D041
:101DA000FFF73EF90099401A95498842F3D3032082
:101DB00097E002202168014000290FD021784907CF
:101DC00005D590490A68E023DB0113430B608D4978
:101DD0000A688D4B1340A2681A430A602178C9072C
:101DE00045D56168012905D13E480068800324D4A7
:101DF000012076E06168022905D13A480068800137
:101E00001BD401206DE06168002905D135480068C8
:101E1000400512D4012064E06168032906D17B49A2
:101E200009680840002808D101205AE0784909686B
:101E30000840002801D1012053E0724F3868072183
:101E40008843616801433960FFF7EAF80090386819
:101E5000382101406068C000814208D0FFF7E0F8F7
:101E60000099401A66498842F1D3032039E002986C
:101E700031682940884216D2306807218843029988
:101E800001433160FFF7CCF8009030682840029998
:101E9000884208D0FFF7C4F80099401A5849884290
:101EA000F3D303201DE02078400706D5554801688C
:101EB000584A0A40E1681143016000F045F856496C
:101EC000504A1268120A1207120F04235A43895CFF
:101ED000C906C90EC840514908605148006800F061
:101EE000D5F8FEBD00100240FFFFFFFE8C80C11F31
:101EF00070B586B005000C00160002200290032089
:101F0000049000200390002D18D10121454A136848
:101F10000B43136012681140009100998021490021
:101F20000191059001A9A020C005FFF75FFA35488F
:101F300001683D4A0A4022433243026006B070BD48
:101F40000C100240FCFFFEEFFCB538202D490A685A
:101F50000240002A0CD1012034490968C90A490706
:101F6000490F8840060032483100FFF703FC44E087
:101F70000A680240082A01D12D483EE00A68024062
:101F8000102A2BD12B4F38688007800F01903868BA
:101F900000094007400F401C0500019803280AD1A2
:101FA00023482900FFF7E6FB3968090A4906490E6C
:101FB0004843040009E01E482900FFF7DBFB3968AD
:101FC000090A4906490E484304003868400F401C7E
:101FD000009020000099FFF7CDFB0EE00A68024058
:101FE000202A02D18020000207E009680840182852
:101FF00002D1FA20C00100E00020F6BD002002401E
:102000008913000008100240FFF0FFFF601002403B
:102010005C100240FF8FFFFFF42100080400002045
:102020000000002034100240FFFFFF880010024033
:102030000024F4000C1002401206130A1A43130C79
:102040001A4300BF094205D0830705D00270401C27
:10205000491EF9D1704700001300103906D330B47F
:102060001400150010393CC0FCD230BC490700D325
:102070000CC000D504C0890002D30280801C002956
:1020800000D502707047FEE77047FEE738B50500DF
:1020900000241449087800281ED0FA20800009780E
:1020A000FFF768FB010010480068FFF763FBFFF7CC
:1020B0004FFB00280DD1042D08D20022290000205A
:1020C000C043FFF734FB0948056007E00120040026
:1020D00004E00120040001E0012004002000C0B25F
:1020E00032BD00BF080000200400002000000020D6
:1020F00010B50400A06C0068E16C0140002913D009
:10210000606C006817490140606C0160E06CA16C74
:102110004860E06B802189000143E163606B002827
:1021200002D02000616B8847206D002819D0606DB7
:102130000068A16D0140002913D0206D0068094995
:102140000140206D0160A06D616D4860E06B8021F1
:10215000C9000143E163606B002802D02000616B7D
:10216000884710BDFFFEFFFF00B5FEE700B5FEE7A4
:102170007047704780B500F031F801BD80B501208F
:10218000FFF736FA01BD80B50E48FEF773FE01BDBC
:1021900080B50D48FEF76EFE0C48FEF76BFE01BDE4
:1021A00080B50B48FEF766FE0648FFF7A1FF01BDAC
:1021B00080B50848FEF763F901BD80B50648FEF713
:1021C0005EF901BD8C210020E8210020D4200020F0
:1021D000302100200C2000207020002003480168DE
:1021E000034A127889180160704700BF4822002016
:1021F00008000020000000000000000000000000B7
:1022000000000000000000000000000000000000CE
:1022100000000000010000000200000003000000B8
:102220000400000006000000070000000800000095
:102230000900000070B40123002413E00168001DB0
:10224000194202D04D466918491E0C60091D121F23
:10225000042AFAD20D00960701D50C80AD1C1A4055
:1022600000D02C700268001D002AE7D170BC7047B6
:1022700030B401220EE00368C318446808301442E9
:1022800002D04D462C19641E1D6825601B1D241D9F
:10229000091FF9D10168001D0029ECD130BC70473D
:1022A00010B5074979441831064C7C44163404E0D3
:1022B000081D0A68891888470100A142F8D110BD9D
:1022C00008000000280000006DFFFFFF4022000012
:1022D0000C0000200000000099FFFFFF0C00000030
:1022E00084000000000000200000000000F00DF855
:1022F000002801D0FFF7D4FF00BF00BF002000BFBF
:1023000000BFFEF7C0FE00F002F80120704780B564
:1023100000F002F801BDFEE70746384600F002F87B
:10232000FBE7FEE780B500BF00BF024A110018209E
:10233000ABBEFBE7260002000548014603B4684631
:1023400080F3098800BF00BF00BF00BFFFF7CEFFCA
:10235000A5EDF5FE01488047014800478D230008A0
:1023600039230008040000000024F40001000000EC
:10237000FEE7FEE7FEE7FEE7FEE7FEE7FEE7FEE735
:0E238000FEE7FEE7FEE7FEE7FEE7000070471F
:040000050800233993
:00000001FF
