:020000040800F2
:10000000501E0020092600081D2400082124000895
:1000100000000000000000000000000000000000E0
:10002000000000000000000000000000252400087F
:100030000000000000000000272400082924000818
:10004000B7130008000000002F1B00083B23000826
:100050003F23000831240008CB250008D7250008DD
:10006000000000003B240008452400085524000837
:100070002526000827260008292600080000000081
:100080002B2600082D2600082F2600083126000800
:1000900033260008352600083726000839260008D0
:1000A0003B260008652400086F2400083D26000850
:1000B0003F26000841260008F8B50400002C01D1B5
:1000C00001207EE0606A002807D160688221490033
:1000D000884205D00020E06102E0002020616061DC
:1000E0000025A5625D20205C002805D128005C2148
:1000F0006054200000F044FE022001005D22A15463
:10010000216809684022914322681160E1682D4A04
:10011000914201D3290001E080214901F02212011E
:10012000E368934205D0E368E026F600B34200D0CE
:10013000A5620123666882277F003740BC46A76816
:10014000842636023E4067463E43276938403043A6
:1001500066691E400643A0698027BF0038403043CF
:10016000277F38263E4006432020205C80273840E9
:100170003043A66A8027BF013E40064320680660E0
:10018000A069060C042006402420205C102738407B
:1001900030433426A65D08273E400643E06802400F
:1001A000324380204001084010432268506020689C
:1001B000C069054A02402068C26125665D2023545B
:1001C0000020F2BD01070000FFF7FFFFF7B50400B4
:1001D00000252F005C20205C012801D102209CE03A
:1001E000012630005C2160545D20205C012802D093
:1001F000022007008DE00198002803D0684600899E
:10020000002801D1370084E003205D216054256679
:100210000198A06368460089A08768460089E08746
:1002200025642565E56428004421605228004621A4
:100230006052A0688021090288420CD120680068C1
:100240004021884321680860206800688021C90136
:100250000143206801609B48616D08639A48616DA5
:10026000C8629A48616D4863606D85632B48216858
:100270004968014022685160E168954A91421ED266
:10028000616D89698022D200914218D1E18FC9073E
:1002900009D421684968084021684860E08F80B22D
:1002A0004008E0870BE0206840688021C9010143D5
:1002B00020684160E08F80B24008401CE087E38FF7
:1002C000206802000C32A16B606D00F0AFFE0028C8
:1002D00008D0206E102101432166300007005D2008
:1002E000265416E04020216809680140002904D105
:1002F0002168096808432168086020684068202157
:100300000143206841602068406802210143206861
:1003100041605C2025543800C0B2FEBDFFBFFFFF26
:10032000F7B5040000252F00A06800280FD16068F1
:100330008221490088420AD104205D216054684628
:100340000389019A0199200000F0C6F8B9E05C2009
:10035000205C012801D10220B3E0012630005C219D
:1003600060545D20205C012802D002200700A4E038
:100370000198002803D068460089002801D1370081
:100380009BE004205D216054256601982064684646
:100390000089442160526846008946216052E56424
:1003A00025652800A0872800E087A0688021090231
:1003B00088420BD12068006840218843216808608A
:1003C000206800684349014020680160CF482168E7
:1003D0004968014022685160E1683D4A914206D374
:1003E00020684068CA4901402068416030E02168C7
:1003F0004968802252010A4321684A60A16D8969D7
:100400008022D200914223D121684968C04A0A4023
:1004100021684A604621615AC9070BD4216849689E
:100420000840216848604620205A80B24008462192
:1004300060520DE0206840688021890101432068F6
:1004400041604620205A80B24008401C462160523C
:10045000B048A16D0863B048A16DC8621B48A16D8A
:100460004863A06D85634620235A226C20680100F2
:100470000C31A06D00F0DAFD002808D0206E1021AC
:1004800001432166300007005D20265415E040201E
:10049000216809680140002904D1216809680843DE
:1004A000216808602068406820210143206841607D
:1004B000206840680643206846605C202554380068
:1004C000C0B2FEBD230A0008BD0800084D0A00089E
:1004D00001070000FFBFFFFFFEB582B0040000254A
:1004E0002F005C20205C012801D102200BE10126B5
:1004F00030005C2160545D20205C694608706068B3
:1005000001906846007801280ED0019882214900A8
:10051000884206D1A068002803D1684600780428E4
:1005200002D002200700EAE00298002806D00398D3
:10053000002803D06846008A002801D13700DEE099
:100540005D20205C042802D005205D2160542566D2
:100550000298A0636846008AA0876846008AE08700
:10056000039820646846008A442160526846008AE5
:1005700046216052E564256520684068674901406E
:1005800020684160E0686649884206D32068406878
:100590005F4901402068416050E020684068802148
:1005A00049010143206841608020C000616D896974
:1005B00081421AD13C21615CC9070AD4216849688B
:1005C000584A0A4021684A60E18F89B24908E187A8
:1005D0000BE0216849688022D2010A4321684A6001
:1005E000E18F89B24908491CE187A16D896981427F
:1005F00024D1206840684649014020684160462077
:10060000205AC0070CD42068406840490140206847
:1006100041604620205A80B24008462160520DE0D9
:10062000206840688021890101432068416046209C
:10063000205A80B24008401C462160525D20205C58
:10064000042806D13348A16D08633348A16DC86200
:1006500005E03548A16D08633448A16DC86234488F
:10066000A16D4863A06D85634620235A226C2068E3
:1006700001000C31A06D00F0D9FC002808D0206EDC
:10068000102101432166300007005D20265436E02A
:1006900020684068304321684860606D0563606D84
:1006A000C562606D4563606D8563E38F20680200FD
:1006B0000C32A16B606D00F0B9FC002808D0206EF0
:1006C000102101432166300007005D20265416E00A
:1006D0004020216809680140002904D12168096887
:1006E0000843216808602068406820210143206891
:1006F00041602068406802210143206841605C201D
:1007000025543800C0B205B0F0BD0000FFDFFFFF88
:10071000FFEFFFFF310A000839090008FF9FFFFFC4
:1007200001070000FFBFFFFF3F0A0008B9090008EA
:100730004D0A000838B504000025606D00280AD075
:10074000606D00F0CFFC002805D0206E1021014321
:10075000216601200500A06D00280AD0A06D00F0E0
:10076000C1FC002805D0206E102101432166012024
:100770000500206840680321884321684860012003
:100780005D2160542800C0B232BDF8B50400206875
:1007900047682068856841202840012805D17806EF
:1007A00003D52000E16C884784E0A80705D538060A
:1007B00003D52000216D88477CE0B0204000284010
:1007C000002877D02020074274D0402635421BD025
:1007D0005D21615C03290DD0216E04220A4322664B
:1007E000002100912168C968009121688968009101
:1007F000009909E0002000902068C06800902068FF
:1008000080680090009855E0284000280FD0206EA6
:10081000012101432166002000902068806800903B
:100820002068006840218843216808600098E80536
:1008300009D5206E08210143216600200090206820
:10084000806800900098206E002832D020684068B0
:10085000E02188432168486001205D216054B80789
:10086000800F002822D02068406803218843216837
:100870004860A06D00280AD00F48A16D8863A06D64
:1008800000F076FC002802D0206E30432066606DB8
:1008900000280ED00848616D8863606D00F068FC28
:1008A000002806D0206E0643266602E0200000F0F5
:1008B00081FDFFE7F1BD0000750A0008F8B50600EC
:1008C000B46A00F079FD07002025306800682840F0
:1008D00000282DD120684068202188432168486085
:1008E0002068406802218843216848603A006421FA
:1008F000200000F0FAF9002802D0206E054325669A
:10090000A068002808D1002000902068C0680090EE
:1009100020688068009000980020E08701205D2119
:100920006054206E002803D0200000F043FD02E058
:10093000200000F047FDF1BDF8B50600B46A00F0F4
:100940003BFD0700202530680068284000282FD193
:10095000206840682021884321684860A0680028FA
:100960000BD1606882214900884206D12068406826
:10097000032188432168486005E020684068012120
:100980008843216848603A006421200000F066F93D
:10099000002800D0256600204621605201205D21FC
:1009A0006054206E002803D0200000F003FD02E018
:1009B000200000F008FDF1BDF8B50600B56A00F0B2
:1009C000FBFC07002024306800682040002824D168
:1009D0002868406820218843296848603A006421DB
:1009E000280000F082F9002802D0286E04432C660B
:1009F0002868406803218843296848600020010076
:100A0000E9874621685201205D216854286E00283C
:100A100003D0280000F0CEFC02E0280000F0D5FC56
:100A2000F1BD38B50400A56A280000F058FE31BDBC
:100A300038B50400A56A280000F052FE31BD38B573
:100A40000400A56A280000F04CFE31BD38B5040052
:100A5000A56A286840680321884329684860286E91
:100A600010210143296601205D216854280000F00F
:100A7000A1FC31BD38B50400A56A002046216852AA
:100A8000E887280000F096FC31BDFFB581B0040076
:100A90000A9F049D00F090FC281AC51900F08CFCF8
:100AA00006006C48006820214843000D6843009010
:100AB00020688068029901400298814201D101209A
:100AC00000E000206946097B884247D00498002155
:100AD000C9438842ECD000F06FFC801BA84201D2D1
:100AE000002D32D120684068E021884321684860A9
:100AF00060688221490088420FD1A06880210902E4
:100B0000884204D0A0688021C900884205D12068AD
:100B10000068402188432168086080208001A16A24
:100B200081420AD1216809684B4A0A4021680A605B
:100B30002168096808432168086001205D2160542C
:100B400000205C216054032009E00098002801D1B6
:100B5000002005000098401E0090A9E7002005B085
:100B6000F0BDFFB583B00400002528006946087079
:100B7000069E00F021FC301A0C99461800F01CFC6F
:100B8000070020680C300290324800682321484357
:100B9000000D704301902068806804990140059819
:100BA000814253D00498C021C900884208D10598D9
:100BB000002805D1029800786946087068460078D8
:100BC00006980021C9438842E5D000F0F5FBC01B20
:100BD000B04201D2002E31D120684068E021884324
:100BE0002168486060688221490088420FD1A0686E
:100BF00080210902884204D0A0688021C90088426F
:100C000005D1206800684021884321680860802061
:100C10008001A16A81420AD1216809680E4A0A400E
:100C200021680A602168096808432168086001207A
:100C30005D2160545C202554032008E001980028C1
:100C400000D12E000198401E0190A4E7002007B0BB
:100C5000F0BD000004000020FFDFFFFFF8B5040036
:100C60000F00160082256D006068A8420FD1A068B1
:100C700080210902884204D0A0688021C9008842EE
:100C800005D12068006840218843216808600096EB
:100C90003B00002280212000FFF7F7FE002805D04E
:100CA000206E20210143216603201DE06068A842D8
:100CB00019D1A06880210902884204D0A06880214F
:100CC000C90088420FD100963B000022C021C90014
:100CD0002000FFF746FF002805D0206E20210143A9
:100CE0002166032000E00020F2BD7CB504000E0068
:100CF0001500009533000022C02149012000FFF7B4
:100D000030FF002805D0206E2021014321660320FA
:100D10001FE000953300002280212000FFF7B5FE80
:100D2000002805D0206E202101432166032010E019
:100D3000009533000022C021C9002000FFF711FFF9
:100D4000002805D0206E202101432166032000E009
:100D5000002076BD81B001207B490A6802430A6009
:100D600009680840009000988020400577490A688B
:100D700002430A60096808400090009801B070477B
:100D8000F1B586B014220021684600F0ABFC06984D
:100D900000686F49884260D1802040016A490A6832
:100DA00002430A60096808400590059801206949D6
:100DB0000A6802430A6009680840059005984620C1
:100DC00000900220019000240294032003900494D8
:100DD0006946A020C00500F08FFC5F4E5F48306080
:100DE00010207060B460F4608020306180277F0044
:100DF00077618025ED00B561F461C020800130622B
:100E0000300000F0BBF8002801D000F065FC069827
:100E100086650698B062524E52483060112070606C
:100E20001020B060F460802030617761B561F461BA
:100E30003462300000F0A2F8002801D000F04CFC31
:100E4000069846650698B06200220021192000F03D
:100E5000F4FD192000F0FBFD74E00698006842499B
:100E600088426FD18020C00138490A6802430A6075
:100E70000968084005900598012436480168214317
:100E80000160006820400590059809200090022626
:100E90000196002002900325039500200490A027CE
:100EA000FF056946380000F027FC102000900196ED
:100EB00000200290039504946946380000F01CFC61
:100EC0002A4E2B483060122070600020B060002055
:100ED000F060802737618024640074618025ED0014
:100EE000B5610020F061802080013062300000F0A8
:100EF00045F8002801D000F0EFFB069886650698BB
:100F0000B0621C4E1C483060132070601020B0602E
:100F10000020F06037617461B561F06130623000CB
:100F200000F02CF8002801D000F0D6FB06984665AA
:100F30000698B062002200211A2000F07EFD1A20DF
:100F400000F085FD07B0F0BD401002403C100240AB
:100F50000030014034100240D4180020300002401C
:100F60003019002044000240003800408C19002055
:100F700008000240E81900201C00024010B50400DF
:100F8000002C01D1012050E020687849401814213C
:100F900000F076FD80002064022025216054206846
:100FA0000068974901402068016020680068A168D6
:100FB0000143E06808432169014360690843A1696E
:100FC0000143E0690843216A014320680160200071
:100FD00000F0BCF9A0688021C901884201D100203D
:100FE000606020798006800E616C0860E06CA16C06
:100FF0004860606800280CD06068052809D220008D
:1010000000F0BEF90020216D0860A06D616D4860A0
:1010100003E0002020656065A0650020E0630121F9
:101020002522A15424216054002010BDF7B50400EE
:101030001F00002006002421615C012901D102204B
:101040004FE0012529002422A1542521615C0129BA
:1010500040D102212522A154E063206800680121CB
:101060008843216808603B00029A0199200000F043
:1010700045F9206B002806D0206800680E21014346
:10108000206801600BE02068006804218843216823
:101090000860206800680A21014320680160606CD4
:1010A0000068C00306D5606C0068802149000143D8
:1010B000606C0160206D002806D0206D00688021E2
:1010C00049000143206D01602068006805432068E5
:1010D000056004E08021E163242160542E0030008B
:1010E000C0B2FEBD70B50100002901D101203BE076
:1010F0002520085C022806D00420C8630020242292
:101100008854012030E0086800680E2290430A6885
:1011100010603D484A6C126802404B6C1A600A68C5
:10112000126801239A430B681A600123354A146838
:1011300040254D5D1C262E401D00B5402543156001
:10114000CA6C8C6C62600A6D002A07D00A6D126846
:1011500010400A6D1060886D4A6D506025200B5458
:10116000002024228854002070BD0000F8FFFDBF3D
:10117000F8B50400002005002521615C022904D097
:101180000420E0630120050036E0216809680E2292
:101190009143226811602168096801229143226805
:1011A00011601949626C12680A40636C1A6001266A
:1011B000144A13689C464023E75C1C233B403700DD
:1011C0009F4063461F431760E26CA36C5A60226D18
:1011D000002A07D0226D12681140226D1160A16DA6
:1011E000626D51602521665424216054A06B002853
:1011F00002D02000A16B88472800C0B2F2BD0000D9
:101200000F80FFFF04000240FFFEFFFFF8B504005F
:101210004D480568206806681C200421226C0240A5
:101220000B0093402B40002B19D00E4217D02268A0
:101230001268920605D42268126804239A43236830
:101240001A604E4A1368276C384081401943116078
:10125000206B002851D02000216B88474DE00221EF
:10126000226C02400B0093402B40002B1FD00E42FB
:101270001DD022681268920608D4226812680A23D8
:101280009A4323681A6001222523E2543B4A1368DB
:10129000276C38408140194311600020242160549C
:1012A000E06A002829D02000E16A884725E008216B
:1012B000226C02400B0093402B40002B1DD031408C
:1012C00000291AD0216809680E2291432268116012
:1012D00001212A4A1368276C38400F0087401F43BA
:1012E0001760E16325202154002024216054606BA5
:1012F000002802D02000616B8847F1BDF0B5C46CB6
:10130000856C6C60046D002C02D0846D456D6C6042
:101310001A4C26680127BC464025475D1C253D40E8
:101320006746AF4037432760046863608468102CC9
:1013300004D10468A2600468E16003E00468A1606D
:101340000468E260F0BD00000000024010B5040037
:10135000206C8008042148431249401860642078BA
:10136000C0B20838142100F08BFB0F49A1640121A1
:101370000200D206D20E9140E16410BD040002408A
:1013800001798906890E04224A43084BD218026566
:10139000074A426501220B005B1E9B079B0F9A4088
:1013A000826570470008024080080240FC08024045
:1013B000400902407047FEE701480068704700BFDF
:1013C000481A002070477047704710B50400206825
:1013D000B149884204D18021C900B048FFF7F4FF29
:1013E00010BD10B504008022D200AC49AC48FEF715
:1013F00097FF10BD38B50400AA4801684968002964
:1014000007D08021C900006840680D1AA448FFF782
:1014100091F931BDF8B500F08BFB00F04DF800F00C
:10142000E5F800F0C0F800F080F800F09BF8002725
:1014300038008021C900020092B28A4209DA9A4932
:10144000091A9A4A03009BB202245C431153401CC0
:10145000EFE73800020092B28A4209DA924A121A81
:10146000934B0400A4B2022565435A53401CF1E794
:10147000904CFFF7A1FF20608F4E80256D01002268
:101480002900300000F02DFA8C4A88498C48FEF77C
:101490009DFE8C48006840680028FAD1012229008E
:1014A000300000F01EFAFFF787FF2168401A206025
:1014B000380069460870DBE730B591B0342200216E
:1014C00004A800F00FF910220021684600F00AF984
:1014D0008020800000F044FB012004908020400226
:1014E000059002240B9403200C9000250D950820F4
:1014F0000E90802080020F9080208005109004A81C
:1015000000F05AFB002801D000F0E6F80720009018
:101510000194029503950221684600F0ABFD002876
:1015200001D000F0D9F811B030BD80B55C485A49FF
:101530000160002141608160F0221201C2600161FE
:1015400041618022920082610162416281620722D0
:10155000C26201634163FEF7AFFD002801D000F0D5
:10156000BBF801BD80B5564857490160822149004A
:10157000416000218160F0221201C260016141617D
:10158000802292008261C161016241628162072210
:10159000C262016308214163FEF78EFD002801D07D
:1015A00000F09AF801BD80B5012048490A6802435D
:1015B0000A60096808400090009800220021092074
:1015C00000F03BFA092000F042FA002200210A2034
:1015D00000F033FA0A2000F03AFA002200210B2032
:1015E00000F02BFA0B2000F032FA01BDF8B586B0FE
:1015F00014220021684600F075F80421344802687E
:101600000A43026002681140059105992021026891
:101610000A4302600268114005910599012401689E
:10162000214301600168214005910599022102686A
:101630000A43026000680140059105988026760102
:101640001D4F01223100380000F04BF9802080014D
:10165000009000250195029469461E4800F04CF860
:101660000094C4208003019002956946380000F080
:1016700043F80096019402950320039069463800D0
:1016800000F03AF800220021052000F0D6F90520EC
:1016900000F0DDF907B0F0BD003001400C10002073
:1016A0000C180020D4180020FF0300000C000020BC
:1016B0000C080020441A002000040050F60300002B
:1016C00070180020E819002000380040381002404F
:1016D000341002400008005000B572B6FEE77047B3
:1016E0007047704710B50400080011000200200088
:1016F00000F0FCFD200010BDF1B582B000230868A9
:10170000D840002800D1EBE00124086825009D4066
:10171000054001950198002800D1DFE003254868C5
:101720002840012803D04868284002281ED102988A
:1017300086681F00022047432800B8408643CF68D0
:10174000BC46180002277843674687403743029813
:1017500087600298466820009840864348680009E0
:101760002040984030430200029842604868284078
:10177000032812D00298C6681F00022047432800A1
:10178000B84086438F68BC461800022778436746F6
:10179000874037433A000298C260486828400228D0
:1017A00021D10298DE0804277E438019076A0720AA
:1017B00000970F26B4461F0007400426774366466D
:1017C000BE40009FB743BC460E691F003840042747
:1017D0007843864067463E4332000298DE0804277D
:1017E0007E4380190262029806681F000220474368
:1017F0002800B84086434F682F40BC461800022797
:1018000078436746874037433A0002980260486849
:10181000C026B6020640002E60D0484E9808042725
:101820007843305800900F27BC461F0028003840EE
:1018300008277843674687400098B843009002988D
:10184000A027FF05B84201D1002410E002983C4ACD
:1018500090420CD002983B4A904201D1022406E00B
:101860000298394A904201D12C0000E005240098EA
:101870001A00154008225543AC400443980804223E
:1018800050433450314A1068019DA8434D68ED0221
:1018900002D504000198204310602D4C2268019D60
:1018A000AA434D68AD0202D51000019A024322609E
:1018B000284C2068019DA8434D68AD0302D5020065
:1018C000019810432060244C2268019DAA434D6872
:1018D000ED0302D51000019A024322605B1C0EE763
:1018E000F7BD00B51300DBB2002B03D00B009BB299
:1018F000836102E00B009BB2836200BD10B504005F
:1019000016480168220092B21140002906D0210039
:1019100089B20160200080B2FFF76CFD10480168B9
:10192000220092B21140002906D0210089B2016044
:10193000200080B2FFF755FD10BD00006018024086
:101940000004005000080050000C00500018024035
:101950000418024084180240801802400C1802400B
:101960001018024000B5010049B2002905D4012138
:10197000C206D20E91403C4A116000BDF0B5020093
:1019800052B2002A1CD40322384B040064B2A408CB
:1019900004256C431C59FF251600064008277E438A
:1019A000B540AC438D01EDB202400826724395402C
:1019B0002543020052B29208042462439D5022E063
:1019C0000F242B4A032305006DB22540083DAD08C6
:1019D00004267543060076B23440083CA408042669
:1019E00074431659FF27BC461C00044008277C435B
:1019F0006746A740BE438C01E4B2034008277B43FF
:101A00009C4034435451F0BD10B50400601E802149
:101A10004904884201D301200EE0601E1549086088
:101A200003210020C043FFF7A9FF002012490860EE
:101A3000072012490860002010BD70B505000C0099
:101A400016002100280040B2FFF798FF70BD10B5C6
:101A50000400200040B2FFF785FF10BD10B5040060
:101A60002000FFF7D1FF10BD00E100E000E400E03E
:101A70001CED00E014E000E018E000E010E000E001
:101A80000022030A8B420BD203098B4219D243086E
:101A90008B422ED2411A00D2014652411046704765
:101AA000FF2209023FD012068B4205D3121209020F
:101AB0008B4201D31212090203098B4219D300E0B1
:101AC000090AC3098B4201D3CB01C01A52418309D1
:101AD0008B4201D38B01C01A524143098B4201D37F
:101AE0004B01C01A524103098B4201D30B01C01AAA
:101AF0005241C3088B4201D3CB00C01A5241830824
:101B00008B4201D38B00C01A524143088B4201D350
:101B10004B00C01A5241884200D3401A5241CFD2E2
:101B200001461046704708B500F008FC08BDFEE706
:101B300010B5002409480168802252000A4302605F
:101B4000032000F0FDFB002802D00120040001E08A
:101B5000FFF700F92000C0B210BD000000200240D5
:101B600030B504000F4801680F4A0A402243026062
:101B700080208000844212D10C480068062148432E
:101B80000B49FFF77DFF401C05000A48006840052F
:101B900005D5002D01D06D1EF7E7032000E00020E1
:101BA00030BD000000700040FFF9FFFF040000207E
:101BB00040420F0014700040F8B584B00400002CBF
:101BC00001D1012044E201262068304000285CD089
:101BD000B3480068382101400291B248006880078C
:101BE000800F01900298102802D10198032802D09A
:101BF0000298082808D1AC480068800345D5606881
:101C0000002842D1012023E2802040026168814205
:101C100004D1A5490A681043086017E06168A02252
:101C2000D202914209D1A0490A688023DB02134302
:101C30000B600A681043086008E09B480168B04ADE
:101C40000A4002600168AF4A0A40026060680028EA
:101C50000DD0FFF7B1FB050093480068800314D452
:101C6000FFF7AAFB401B6528F6D30320F0E1FFF73E
:101C7000A3FB05008C480068800306D5FFF79CFB9A
:101C8000401B6528F6D30320E2E12078800776D553
:101C9000834800683821014002918248006880072B
:101CA000800F01900298102802D10198022802D0DA
:101CB000029800282CD17C490868400504D5E068CA
:101CC000002801D10120C3E1B9480368B94A1A408C
:101CD00063691B02134303600298002810D108684F
:101CE000BE4A0240206910430860BD480968C90A1D
:101CF0004A07520F31009140FFF7C2FEB949086010
:101D0000B948006800F01CFB002838D001209FE192
:101D1000E068002821D0644F3868B049014020694C
:101D20000843386038688021490001433960FFF773
:101D300043FB05003868400506D4FFF73DFB401B18
:101D40000328F7D3032083E199480168994A0A40A0
:101D5000616909021143016011E0534F3868BD49C0
:101D600001403960FFF728FB05003868400506D5BB
:101D7000FFF722FB401B0328F7D3032068E12078FC
:101D8000000734D54648006838210140182908D199
:101D9000B148006880072AD5A069002827D1012012
:101DA00056E1A069002810D0AB4F38683043386046
:101DB000FFF702FB05003868800718D4FFF7FCFA2C
:101DC000401B0328F7D3032042E1A34F38680121C9
:101DD00088433860FFF7F0FA05003868800706D5B9
:101DE000FFF7EAFA401B0328F7D3032030E104276A
:101DF00020683840002800D18FE000206946087034
:101E0000274800683821014020290AD193480068FA
:101E1000800700D481E0A068002800D07DE0012088
:101E200016E1802040058E490968014000290AD149
:101E30008B490A6802430A600968084003900398C6
:101E400030006946087087480068C00514D485488A
:101E5000006880214900014382480160FFF7ACFA25
:101E6000050080480068C00506D4FFF7A5FA401BAE
:101E70000328F6D30320EBE0A068012804D17748BB
:101E800001680E4306601AE0A06805280ED1734869
:101E900001680F43076001680E4306600FE000BF52
:101EA000081002400C100240001002406B4801680C
:101EB0000122914301600168042291430160A068FE
:101EC00000280ED0FFF778FA050064480068800704
:101ED0001AD4FFF771FA401B63498842F5D30320F7
:101EE000B6E0FFF769FA05005C48006880070BD58B
:101EF000FFF762FA401B5C498842F5D30320A7E054
:101F0000FFFFFEFFFFFFFBFF68460078012804D1BA
:101F100053480168554A0A400260E069002800D130
:101F200095E05348006838210140102964D0E069E9
:101F3000022841D1AE4F3868AE4901403960FFF701
:101F40003BFA00908026B60438683040002807D05D
:101F5000FFF732FA0099401A0328F3D3032077E001
:101F6000A6480168A44A0A40216A1143626A0A43EA
:101F7000A16A09021143E26A0A43216B114301601D
:101F80003968802252040A433A600168802252056F
:101F90000A430260FFF710FA050038683040002855
:101FA00055D1FFF709FA401B0328F6D303204FE071
:101FB00004100240FF80FFFF8D4E30688D490140C4
:101FC0003160FFF7F9F90500306880010ED5FFF7A1
:101FD000F3F9401B0328F7D3032039E0FFC7FFFFC5
:101FE0000024F40004000020000000208348016861
:101FF000834A0A4002602AE0E069012801D10120F9
:1020000026E07E480068019001988007800F216AD1
:1020100088421AD1019870210140606A814214D12E
:102020000198FE21C9010140A06A000281420CD141
:102030000198F82189030140E06A814205D10198A5
:10204000400F4007216B884201D0012000E00020B2
:1020500005B0F0BDFFFEFFFF601002405C100240C3
:102060003C1002400070004089130000FFFFFFEFAA
:1020700008100240F3B581B00400002C01D101200A
:10208000B5E007258C4E306828400299884216D268
:10209000306807218843029901433160FFF78CF9CA
:1020A0000090306828400299884208D0FFF784F9F0
:1020B0000099401A81498842F3D3032097E0022017
:1020C0002168014000290FD02178490705D57C49B6
:1020D0000A68E023DB0113430B6079490A68794BF6
:1020E0001340A2681A430A602178C90745D5616880
:1020F000012905D13E480068800324D4012076E000
:102100006168022905D13A48006880011BD401208A
:102110006DE06168002905D135480068400512D49A
:10212000012064E06168032906D167490968084015
:10213000002808D101205AE06449096808400028B5
:1021400001D1012053E05E4F386807218843616860
:1021500001433960FFF730F90090386838210140B9
:102160006068C000814208D0FFF726F90099401A44
:1021700052498842F1D3032039E00298316829405E
:10218000884216D2306807218843029901433160A2
:10219000FFF712F90090306828400299884208D071
:1021A000FFF70AF90099401A44498842F3D3032003
:1021B0001DE02078400706D541480168444A0A409E
:1021C000E1681143016000F01DF842493C4A126881
:1021D000120A1207120F04235A43895CC906C90E5A
:1021E000C8403D4908603D48006800F0A9F8FEBDC0
:1021F00000100240FFFFFFFE8C80C11F0C10024048
:10220000FCFFFEEFFCB538202D490A680240002A89
:102210000CD1012032490968C90A4907490F884091
:10222000060030483100FFF72BFC44E00A6802400A
:10223000082A01D12B483EE00A680240102A2BD11F
:10224000294F38688007800F0190386800094007DF
:10225000400F401C0500019803280AD1214829009D
:10226000FFF70EFC3968090A4906490E4843040085
:1022700009E01C482900FFF703FC3968090A4906F0
:10228000490E484304003868400F401C009020006D
:102290000099FFF7F5FB0EE00A680240202A02D100
:1022A0008020000207E009680840182802D1FA20BF
:1022B000C00100E00020F6BD0020024089130000AC
:1022C00008100240FFF0FFFF601002405C10024067
:1022D000FF8FFFFFA824000804000020000000205A
:1022E000001002400024F4000C1002401206130AF1
:1022F0001A43130C1A4300BF094205D0830705D0C7
:102300000270401C491EF9D17047000013001039BB
:1023100006D330B41400150010393CC0FCD230BCD8
:10232000490700D30CC000D504C0890002D3028045
:10233000801C002900D502707047FEE77047FEE759
:1023400038B5050000241449087800281ED0FA206A
:1023500080000978FFF794FB010010480068FFF740
:102360008FFBFFF77BFB00280DD1042D08D2002244
:1023700029000020C043FFF760FB0948056007E023
:102380000120040004E00120040001E00120040019
:102390002000C0B232BD00BF0800002004000020B1
:1023A0000000002010B50400A06C0068E16C014042
:1023B000002913D0606C006817490140606C01600F
:1023C000E06CA16C4860E06B802189000143E1630F
:1023D000606B002802D02000616B8847206D0028C8
:1023E00019D0606D0068A16D0140002913D0206DE7
:1023F000006809490140206D0160A06D616D486071
:10240000E06B8021C9000143E163606B002802D0CA
:102410002000616B884710BDFFFEFFFF00B5FEE79F
:1024200000B5FEE77047704780B500F031F801BD98
:1024300080B50120FFF762FA01BD80B50E48FEF7B6
:10244000E5FE01BD80B50D48FEF7E0FE0C48FEF745
:10245000DDFE01BD80B50B48FEF7D8FE0648FFF74C
:10246000A1FF01BD80B50848FEF78FF901BD80B519
:102470000648FEF78AF901BD8C190020E8190020F2
:10248000D4180020301900200C18002070180020EB
:1024900003480168034A127889180160704700BF39
:1024A000481A002008000020000000000000000082
:1024B000000000000000000000000000000000001C
:1024C0000000000000000000010000000200000009
:1024D00003000000040000000600000007000000E8
:1024E000080000000900000070B40123002413E07C
:1024F0000168001D194202D04D466918491E0C6042
:10250000091D121F042AFAD20D00960701D50C806E
:10251000AD1C1A4000D02C700268001D002AE7D1C3
:1025200070BC704730B401220EE00368C3184468E1
:102530000830144202D04D462C19641E1D682560D7
:102540001B1D241D091FF9D10168001D0029ECD1B4
:1025500030BC704710B5074979441831064C7C44AB
:10256000163404E0081D0A68891888470100A14252
:10257000F8D110BD08000000280000006DFFFFFF2B
:10258000401A00000C0000200000000099FFFFFF2F
:102590000C0000008400000000000020000000008B
:1025A00000F00DF8002801D0FFF7D4FF00BF00BFF6
:1025B000002000BF00BFFEF72DFF00F002F8012051
:1025C000704780B500F002F801BDFEE707463846C7
:1025D00000F002F8FBE7FEE780B500BF00BF024A4B
:1025E00011001820ABBEFBE726000200054801469B
:1025F00003B4684680F3098800BF00BF00BF00BF76
:10260000FFF7CEFFA5EDF5FE0148804701480047E2
:1026100045260008ED250008040000000024F40011
:1026200001000000FEE7FEE7FEE7FEE7FEE7FEE74B
:10263000FEE7FEE7FEE7FEE7FEE7FEE7FEE7FEE772
:06264000FEE700007047F8
:04000005080025EDDD
:00000001FF
