:020000040800F2
:1000000078140020A91A0008D5180008D71800088D
:1000100000000000000000000000000000000000E0
:10002000000000000000000000000000D9180008D7
:100030000000000000000000DB180008DD180008C8
:10004000BB08000800000000170B0008F3100008B0
:10005000CF180008D31800086B1A0008771A000898
:1000600000000000E518000805190008C91A00087A
:10007000CB1A0008CD1A0008CF1A000800000000B3
:10008000D11A0008D31A0008D51A0008D71A000898
:10009000D91A0008DB1A0008DD1A0008DF1A000868
:1000A000E11A00082519000827190008E31A0008BA
:1000B000E51A0008E71A0008F8B5040001D101208C
:1000C000F2BD82277F000025606A002804D16068A5
:1000D000B84203D0E56101E025616561A5622600B3
:1000E0005C367078002803D13570200000F02FFBBB
:1000F0000220707020680168402291430160E3682B
:10010000E022D200F0200001934203D90021834273
:1001100004D104E080214901934200D0A56201226C
:1001200063681F40BC46A76884231B023B406746A8
:100130003B439C46277C02231F4063461F43636961
:1001400013403B439C46A76953021F4063461F432D
:10015000BC46277F38233B4067463B439C462023D1
:10016000E75C80231F4063461F43BC46A36A5703D6
:100170003B4067463B4327683B60A3691F0C042351
:100180001F40BC462423E35C10273B4067463B43AB
:100190009C463423E75C08231F4063461F43E36803
:1001A000184038430143206841602068C169034B0F
:1001B0000B40C361756072700020F2BDFFF7FFFF56
:1001C000F3B583B0040017000120029000206946B7
:1001D000087020004430007E012801D1022002E195
:1001E0001D00260044360120307600F013FB0190FC
:1001F000717E280001290BD0626882235B009A423D
:1002000004D1A268002A01D1042901D0022083E090
:100210000499002903D0002F01D02A0001D1012028
:100220007AE022004432527E042A03D005222300C1
:1002300044335A76230044330022DA6127645D8018
:100240001D80A163E587A5879A60DA602268674907
:10025000E3688B42536805D3014D1D4005E000BFA4
:10026000FFEFFFFF80256D011D435560226840238D
:1002700015681D4002D115682B43136062680A9F00
:10028000E3688B424BD3002A01D0012809D1A06B2F
:1002900000882168C860A06B801CA063E08F401EAE
:1002A000E087029E019DE08F002804D120004430A9
:1002B000408800284AD021684D488A6892070ED5A8
:1002C000E28F002A0BD0002E09D0A26B1288CA60E0
:1002D000A16B891CA163E18F0918E18700262168C1
:1002E0008A68D2070ED5220044325388002B09D0E9
:1002F000C968236C1980216C891C216451880818F5
:100300005080012600F086FA401BB842CBD3002073
:10031000C0438742C7D00320694608705BE0002ACB
:1003200001D0012809D1A06B007821680873A06B67
:10033000401CA063E08F401EE087029E019DE08F7D
:10034000002804D1200044304088002835D021689E
:1003500027488A6892070ED5E28F002A0BD0002E1C
:1003600009D0A26B12780A73A16B491CA163E18FBB
:100370000918E187002621688A68D20710D5220073
:1003800044325288002A0BD0097B226C1170216CF8
:10039000491C2164210044314A88101848800126F4
:1003A00000F038FA401BB84204D30020C043874213
:1003B000B1D1C4E7002FC2D1ADE739002A00200037
:1003C00000F08AF9002806D0012069460870202034
:1003D00021004431C86120004430012141760021D0
:1003E00001766846007805B0F0BD00000107000006
:1003F000FFFF0000FEB5040020684168009181689D
:10040000402541220A40012A06D1009A2A4003D001
:100410002000E16C8847F7BD8A0706D5009A1206CE
:1004200003D52000216D8847F7BDB02252000A4055
:1004300064D02022009B134060D0002329420DD0BD
:100440005D26A65D032E4FD0266E04273743276610
:100450000193C668019686680196019E01260A40AE
:100460000BD0226E3243226601938068019020688F
:100470000068A843226810600198C80508D5206E5E
:10048000082101432166019320688068019001984A
:10049000206E002832D020684168E02291434160FC
:1004A0005D2026540098800725D0206841680322EB
:1004B00091434160A06D124E002808D08663A06D64
:1004C00000F0AEF9002802D0206E28432066606D4F
:1004D000002813D08663606D00F0A2F900280DD0CB
:1004E000206E05432566F7BD0093C16800918068C2
:1004F00000900098F7BD200000F0D4F9F7BD00008F
:100500000505000880B5806A002146228152C18716
:1005100000F0C8F901BDFEB582B006000A9C1D4678
:1005200000F078F9281A071900F074F96849096889
:100530004901090D7943009100240125019006E04D
:100540000098002800D100270098401E00903068D5
:100550008068029901400298814201D1012000E0A7
:1005600000206946097B884235D004980021C943A0
:100570008842ECD000F04EF90199401AB84201D2FD
:10058000002FDDD130684168E022914341607068FE
:100590008221490088420BD1B068E903884202D029
:1005A0004909884204D130680168402291430160C2
:1005B0006803B16A814208D131680A68454B13402B
:1005C0000B6031680A681043086030005C30457089
:1005D0000470032000E0002005B0F0BDFCB585B03C
:1005E00007000E000C9D0024002069460870069943
:1005F000009100F00FF90099081A4019009000F0DE
:1006000009F939680C31009A314B1B6823256B437B
:100610001B0D5A4301923D000296059F009E0490D7
:10062000039106E00198002800D100260198401EA1
:1006300001902868806802990140B94245D002982B
:10064000C021C900884207D1002F05D10398007846
:10065000694608706846007806980021C9438842B8
:10066000E7D000F0D7F80499401AB04201D2002E2A
:10067000D8D128684168E0229143416068688221AE
:10068000490088420CD1A86880210902884202D022
:100690004909884204D128680168402291430160D9
:1006A00080208001A96A814208D129680A68094B23
:1006B00013400B6029680A681043086028005C300A
:1006C000012141700470032000E0002007B0F0BD5C
:1006D0000C000020FFDFFFFFF8B504000F0016003C
:1006E000202500963B000022C0214901FFF776FF3C
:1006F000002812D100963B00002280212000FFF745
:100700000AFF002809D100963B000022C021C90041
:100710002000FFF763FF002803D0206E0543256605
:100720000320F2BD81B03748012142680A4342608C
:1007300042681140009100998021490502680A43EE
:100740000260006801400091009801B07047F8B560
:1007500086B0040014220021684600F0A4F8206846
:10076000294988424CD12948090C82680A43826091
:1007700082681140059105990126016831430160A5
:100780000168314005910599022401682143016007
:100790000068204005900598009601940025029578
:1007A0000327039704956946A020C00500F086F84A
:1007B0000820009001940296039704956946A020B2
:1007C000C00500F07BF8102000900194029503977B
:1007D00004966946A020C00500F070F8E002009081
:1007E00001940295039704956946094800F066F85C
:1007F000002200211A2000F03CF91A2000F03EF9F6
:1008000007B0F0BD3C1002400038004034100240F8
:100810000004005001484068704700BF00000020FD
:10082000F8B50021002401262522825C022A03D08B
:100830000421C16301242EE0026813680E25AB4336
:10084000136002681368B3431360436C144A1D6855
:1008500015401D60114B1D68AC464025475D1C25A9
:100860003D400127AF4065462F431F60C36C856C38
:100870006B60036D002B06D01B681A40036D1A6075
:10088000826D436D5A602522865424228154816BE7
:10089000002900D088472000F2BD0000040002407B
:1008A000FFFEFFFF704710B50400080011000200B2
:1008B000200000F009F9200010BDFEE7FFB500227E
:1008C0000F2302932CE0052602E0554FB842FAD1DF
:1008D000AE402643009C2660524C2568DC432540F0
:1008E0004E68F60200D51D434E4E356075682540B2
:1008F0004F68BF0200D51D4375604B4D6E682640A2
:100900004D68AD0300D51E43474D6E602E683440E0
:100910004E68F60302D526001C0034432C60521C9E
:100920000B681C00D44079D0012595402B40F6D0AF
:1009300054000327A740FE4301964E68B707BF0F38
:10094000012F03D0B607B60F022E0ED18768019E85
:100950003E40CF68A740374387604668AE434D6846
:10096000EF06FF0F9740374347600D79AD07AD0F96
:10097000032D25D0C568019E2E408D68A5403543C6
:10098000C5600D79AD07AD0F022D19D1D508AD00A9
:1009900045192E6A039697001C263E406F463E700E
:1009A000039EB446029F6E463678B7406646BE4305
:1009B000B4460F696E463678B740664637432F62B5
:1009C00007680326019D3D404F683740BC4627001D
:1009D0006446BC402C4304604C68350425409ED0DE
:1009E000124C9508AD0064190094009C2468D7004F
:1009F00018253D40029FAF40BC43A027FF05B842E9
:100A000001D1002664E70A4FB84201D101265FE711
:100A1000084FB84200D058E7022659E7FFBD000052
:100A2000000C00500018024080180240601802407C
:100A3000000400500008005010B5C20018231340F5
:100A4000FF249C40E2438907090E9940030004D427
:100A500019489B089B00C01806E0184B0007000FC0
:100A6000083880088000181803681A401143016094
:100A700010BD80B5FFF7E0FF01BD0000010005D407
:100A80000121C006C00E81400D480160704710B5BD
:100A9000401E80214904884201D3012010BD094C29
:100AA000606003210020C043FFF7C6FF0020A06064
:100AB0000721216010BD000000E400E01CED00E013
:100AC00000E100E010E000E01206130A1A43130CE4
:100AD0001A4300BF094205D0830705D00270401CAD
:100AE000491EF9D1704700001300103906D330B405
:100AF0001400150010393CC0FCD230BC490700D3AB
:100B00000CC000D504C0890002D30280801C0029DB
:100B100000D502707047FEE7010005D40121C00630
:100B2000C00E81405C480160704710B5C2001823B8
:100B30001340FF249C40E2438907090E99400300BB
:100B400004D456489B089B00C01806E0544B00078D
:100B5000000F083880088000181803681A401143F5
:100B6000016010BD40A2515C4018016801222BE0D9
:100B70003DA2515C40180168012291430160704719
:100B800039A3595C40180168464B04E036A3595C10
:100B900040180168444B0B401A4302607047000044
:100BA00031A2515C4018016840480840704700007D
:100BB0002DA3595C40180168202304E02AA3595C46
:100BC00040180168402399430A43026070470000BF
:100BD00025A3595C401801688023F4E722A3595CDF
:100BE00040180168324BD6E71FA3595C40180168D2
:100BF000304BD0E71CA3595C401801682E4BCAE764
:100C000019A3595C40184168090C09040A43426061
:100C10007047000030B5039C13A5695C40180100C3
:100C200008310C30102C02D102600B6030BD0A601C
:100C3000036030BD800A214B4340D800C01A204BCE
:100C4000890059188000081801683F23BBE700009D
:100C500005A2515C401801680222B5E702A2515C6E
:100C6000401801680822AFE7081C3044586C800027
:100C700001201449487070470120124908707047DC
:100C800010B5114C02212000FFF772FF0021200057
:100C9000FFF76EFF10BD000000E100E000E400E09F
:100CA0001CED00E00F80FFFFEFBFFFFF10400000D2
:100CB000FFFCFFFFFFF3FFFFFFCFFFFF80001000EF
:100CC000000802407410002000000240F0B591B00E
:100CD00000F010FA00F0D4F900240021DD4E4800A5
:100CE000DD4A521A80231B01F3181A523152491C53
:100CF0008020C0008142F2DB1422002101A8FFF70E
:100D0000D2FD0427D54D286838432860286838402C
:100D10000090009820202968014329602968084034
:100D20000090009828680121014329602868C107C4
:100D3000C90F0091009828680221014329602868A2
:100D400002210840009000980803019002940120BD
:100D5000039001A9C248FFF7B1FD68680121014372
:100D600069606868C107C90F0091009800210920D7
:100D7000FFF7DBFE0920FFF7CFFE00210A20FFF777
:100D8000D4FE0A20FFF7C8FE2822002107A8FFF79B
:100D90008AFD182200216846FFF785FDE868A90C46
:100DA0000143E960E868A90C0840069006982868A5
:100DB0000121014329602868C107C90F06910698DF
:100DC0000220009001900325029503940494059459
:100DD0006946A020C00500F0A1F90097022001900B
:100DE00002950394049405946946A020C00500F080
:100DF00095F9402000900220019002950394012073
:100E0000049005946946A020C00500F087F9954D2F
:100E1000102200212800FFF70DFF002200212800EA
:100E2000FFF7B4FEAA0C00212800FFF7E3FE002222
:100E300000212800FFF7BCFE002200212800FFF758
:100E4000BDFE802200212800FFF7C2FEAF0D3A0050
:100E500000212800FFF7C2FE2A0D00212800FFF71D
:100E6000C3FE112202212800FFF7E4FE1022022116
:100E70002800FFF78BFEAA0C02212800FFF7BAFE1C
:100E8000002202212800FFF793FE00220221280001
:100E9000FFF794FE802202212800FFF799FE3A0016
:100EA00002212800FFF79AFE2A0D02212800FFF7F1
:100EB0009BFE00211920FFF738FE1920FFF72CFEBA
:100EC00007940894F020000109900A940B94680D8F
:100ED0000C900E940F9407201090634F07A93800D0
:100EE00000F06EF9786810218843786078680821EE
:100EF000884378605D48810C7050822040007118F2
:100F00004860A80C30188460F0200001A90C71180A
:100F1000C860A80C30180461A80C30184461A80CF3
:100F200030188461A80C3018C461A80C3018046211
:100F3000A80C30184462A80C301884620720A90C51
:100F40007118C862A80C30180463A80C30184463E8
:100F5000A80C3018FFF7B0F8002801D000F0C7F84F
:100F6000434A02212800FFF70BFE02212800FFF769
:100F700017FE019600903F4B019A02212800FFF7CF
:100F800049FEEA0C02212800FFF73AFE1122022155
:100F90002800FFF74FFE8222920100212800FFF770
:100FA000EFFD00212800FFF7FBFD0090019B314A77
:100FB00000212800FFF72EFEEA0C00212800FFF791
:100FC0001FFE102200212800FFF734FE0221280016
:100FD000FFF73EFE02212800FFF740FE0021280017
:100FE000FFF736FE00212800FFF738FE7868A90CCD
:100FF00001437960786802210143796078680121B2
:10100000014379603868402101433960022128009A
:10101000FFF7A8FD00212800FFF7A4FDE80C321817
:1010200015480090280D0300110080003018FFF7CC
:10103000C7F8124C20780128FCD100212800FFF7C6
:1010400097FD60780128FCD102212800FFF790FD70
:10105000FEE7000010000020FF03000034100240F3
:1010600000080050000002400030014000380040FD
:10107000902000000C300140881300007410002004
:1010800030B591B03422002104A8FFF70CFC1022E7
:1010900000216846FFF707FC8020800000F0D0F8B0
:1010A00002240494E001079000250895402009904F
:1010B0000B940C940D9508200E9080030F90000364
:1010C000109004A800F0E2F8002801D072B6FEE704
:1010D000072000900194029503950221684600F0D4
:1010E000B9FA002801D072B6FEE711B030BD72B671
:1010F000FEE7FEE710B5002407480168820D0A43A9
:101100000260032000F0A2FB002801D0012401E0CE
:10111000FFF708FB200010BD00200240F8B50400D6
:101120000800002146E02E0A3500754375437543DB
:10113000666A2F017F1BBE43009F7D433543656276
:1011400031E001258D40154033D02A006A43530019
:101150009E18F3434668012E01D0022E0BD1A668DB
:101160001E40876857433743A7606668AE43C76829
:101170006F4337436760E6681E400769574337434C
:10118000E7604668022E0ED146690096FF2DCAD848
:1011900016006E436E43256A3701BF1BBD43009F97
:1011A0007E432E43266225682B4045686A431A43D6
:1011B0002260491C02681300CB40C2D10020F2BD5E
:1011C0000200012013685B062ED41068194B0340FF
:1011D000086818434B680343C86818430B69034306
:1011E000486918438B690343C86918430B6A034372
:1011F00013605068104B0340886818434B691B0C00
:1012000003435360886880231B01984203D25068CF
:101210005B0003435360086A80239B01984202D11C
:10122000486A80B210610020D169044B0B40D36141
:10123000704700004000FFFFFBF0FFFFFFF7FFFFDC
:1012400010B50E4C21680E4A0A4002432260610D1F
:10125000884210D10B480068062148430A4900F033
:101260001BFB401C00E0401E6169490503D50028B6
:10127000F9D1032010BD002010BD00000070004017
:10128000FFF9FFFF0C00002040420F00FEB50700F1
:101290001BD0A84C3878C00719D5A1683820084061
:1012A000E1688025AD02102808D18807800F032847
:1012B00006D079686808814234D13BE00828F8D12B
:1012C0002068054003D07868002800D1B5E138785F
:1012D00080077BD5A06838210140E268B948BA4D43
:1012E00010294ED19207920F022A4CD0F96800299A
:1012F00000D196E0216808403969014321602068E7
:10130000A10D01432160FFF785FA3E000700206828
:10131000400500D57DE0FFF77DFAC01B0328F6D31A
:101320000320FEBDA022D202914207D12168820093
:101330000A43226021680843206007E02068A3492F
:10134000014021602068A24901402160786800289E
:101350000BD0FFF75FFA060020682840B7D1FFF7EF
:1013600059FA801B6528F7D3DAE7FFF753FA06002E
:1013700020682840ABD0FFF74DFA801B6528F7D3D3
:10138000CEE70029B2D12268520502D5FA68002AB8
:101390003ED0626815407A6912022A4362600029D1
:1013A0000ED121680840396901432160A448012118
:1013B00022689204520F914000F06EFAA149086031
:1013C000A148006800F042FA002821D102253878AF
:1013D00000070AD5A06838210140182931D1206EB4
:1013E000284002D0B869002812D03878400700D4CD
:1013F000A9E000200190A06838210140202942D1B5
:10140000E06D054000D19EE0B868002800D09AE069
:1014100013E160680540706900022843606037008E
:10142000D4E72068894901402160FFF7F3F90500FE
:1014300020684005CAD5FFF7EDF9401B0328F7D314
:101440006EE7B8690028206E0ED0012101432166A5
:10145000FFF7E0F90600206E2840C6D1FFF7DAF961
:10146000801B0328F7D35BE7012188432066FFF741
:10147000D1F90600206E2840B7D0FFF7CBF9801BCA
:101480000328F7D34CE7E806E16B014008D1E16B94
:101490000143E163E16B0840009000980120019056
:1014A0006B4D2868C00512D4A00D009028680099E3
:1014B00001432960FFF7AEF9060028680099014052
:1014C00005D1FFF7A7F9801B0328F6D328E7B868F2
:1014D0000121012805D00528E06D06D10422024330
:1014E000E265E06D0143E16505E08843E065E06D9C
:1014F00004218843E0650226B86800280CD0FFF775
:1015000089F90500E06D304016D1FFF783F9401BE3
:10151000A4498842F6D303E7FFF77CF90500E06DA4
:10152000304009D0FFF776F9401B9E498842F6D338
:10153000F6E600BF001002400198002803D0E06BDF
:1015400099490140E163F869002855D0A168382223
:101550000A40102A52D08026B604944902282068F6
:1015600038D101402160FFF755F90500206830406F
:1015700005D0FFF74FF9401B0328F7D3D0E6E0680A
:101580008B490140386A0843796A0143B86A00020E
:101590000843F96A0143386B0843E060206871082A
:1015A00001432160E068F1000143E160FFF732F997
:1015B0000500206830401FD1FFF72CF9401B03289D
:1015C000F7D3ADE6FFC7FFFFFF80FFFFFFFFFEFF82
:1015D000FFFFFBFF01402160FFF71CF905002068B9
:1015E000304005D0FFF716F9401B0328F7D397E6E4
:1015F000E0688D490140E1600020FEBD01281CD05B
:10160000E0688107890F3A6A914216D17021014042
:101610007A6A914211D1FE21C9010140BA6A1202CF
:1016200091420AD1F82189030140FA6A914204D11A
:10163000400F4007396B8842DED00120FEBD00001C
:101640000024F4000C00002008000020FFFEFFFF33
:1016500000700040F8B5070066D00091734800683C
:101660004007400F884218D2704C206807218843F9
:10167000009901432160FFF7CDF8009D0600206826
:101680004007400FA84207D0FFF7C4F8801B454928
:101690008842F4D30320F2BD00953968654C0220DE
:1016A00001420CD0490704D5A168E022D2010A43C7
:1016B000A260A1685E4A0A40B9681143A16007258B
:1016C000ED433978C90732D57968012918D12068E6
:1016D000800329D5A06828400143A160FFF79AF84C
:1016E0003E000700A068382101407068C0008142B8
:1016F0001CD0FFF78FF8C01B2A498842F2D3C9E7F4
:10170000022902D12068800103E0002903D120686A
:101710004005DFD408E0032903D1226E1040D9D15F
:1017200002E0E26D1040D5D10120F2BD37000098F3
:101730003E4909684907490F884217D23B4800686B
:1017400005400098284339490860FFF763F8009D79
:101750000600364800684007400FA84206D0FFF751
:1017600059F8801B0F498842F3D393E73878400734
:1017700005D5A06830490140F8680843A06000F032
:1017800019F82E49A2681205120F9200895CC90649
:10179000C90EC8402A4908602A48006800F056F877
:1017A000F2BD000089130000FFFFFFEFFFFFFFFE07
:1017B0008C80C11F30B5072123481E4C3822A368F6
:1017C000134006D123680122DB0A19408A40110028
:1017D00016E0A3681340082B24D0A3681340102BF5
:1017E00011D1E568E26812091140491C00F054F873
:1017F0007F21E268120A11404843E168490F491C01
:1018000000F04AF830BDA0681040202802D18020A6
:10181000000230BDA0680240182A02D1FA20C0019F
:1018200030BD002030BD0000FCFFFEEF0020024074
:10183000FFF0FFFF00100240FF8FFFFF4819000874
:101840000C000020080000200024F40070B5060001
:1018500000240F4D2978002916D0FA20800000F0CE
:101860001BF801000B48006800F016F8FFF70FF9AD
:10187000002809D1042E07D2002231000020C043E5
:10188000FFF7F7F8AE6000E00124200070BD00BF54
:10189000000000200C000020094214D088420FD321
:1018A0000122030C01D100041204002300185B4143
:1018B0008B4200D35B1A5241F8D3190010007047D5
:1018C00001000020704708B500F002F808BDFEE7EF
:1018D0007047FEE7FEE7FEE77047704780B500F00F
:1018E0002BF801BD80B51248026802210A4003D0DE
:1018F0004160FFF7C1F901BD0068000701D5FFF79E
:10190000BFF901BD80B50A480268410D0A4003D005
:101910004160FFF7ADF901BD0068000501D5FFF793
:10192000AFF901BD704780B50248FEF763FD01BD08
:101930000000024010100020024841680278891817
:10194000416070470000002000000000000000001F
:101950000000000000000000000000000000000087
:101960000000000000000000010000000200000074
:101970000300000004000000060000000700000053
:10198000080000000900000070B40123002413E0E7
:101990000168001D194202D04D466918491E0C60AD
:1019A000091D121F042AFAD20D00960701D50C80DA
:1019B000AD1C1A4000D02C700268001D002AE7D12F
:1019C00070BC704730B401220EE00368C31844684D
:1019D0000830144202D04D462C19641E1D68256043
:1019E0001B1D241D091FF9D10168001D0029ECD120
:1019F00030BC704710B5074979441831064C7C4417
:101A0000163404E0081D0A68891888470100A142BD
:101A1000F8D110BD08000000280000006DFFFFFF96
:101A200068100000100000200000000099FFFFFF78
:101A300010000000840000000000002000000000F2
:101A400000F00DF8002801D0FFF7D4FF00BF00BF61
:101A5000002000BF00BFFFF739F900F002F80120B5
:101A6000704780B500F002F801BDFEE70746384632
:101A700000F002F8FBE7FEE780B500BF00BF024AB6
:101A800011001820ABBEFBE7260002000548014606
:101A900003B4684680F3098800BF00BF00BF00BFE1
:101AA000FFF7CEFFA5EDF5FE01488047014800474E
:101AB000E91A00088D1A000801000000000000006B
:101AC000040000000024F400FEE7FEE7FEE7FEE766
:101AD000FEE7FEE7FEE7FEE7FEE7FEE7FEE7FEE7DE
:0A1AE000FEE7FEE7FEE7FEE77047B1
:0400000508001A8D48
:00000001FF
